{
  "contractName": "SmartGrid",
  "abi": [
    {
      "constant": true,
      "inputs": [
        {
          "name": "",
          "type": "uint256"
        }
      ],
      "name": "nodes",
      "outputs": [
        {
          "name": "name",
          "type": "string"
        },
        {
          "name": "nodeAddress",
          "type": "address"
        }
      ],
      "payable": false,
      "stateMutability": "view",
      "type": "function",
      "signature": "0x1c53c280"
    },
    {
      "constant": true,
      "inputs": [
        {
          "name": "",
          "type": "address"
        }
      ],
      "name": "nodeInfo",
      "outputs": [
        {
          "name": "name",
          "type": "string"
        },
        {
          "name": "nodeAddress",
          "type": "address"
        }
      ],
      "payable": false,
      "stateMutability": "view",
      "type": "function",
      "signature": "0x23c2e2bc"
    },
    {
      "constant": true,
      "inputs": [],
      "name": "nodeCount",
      "outputs": [
        {
          "name": "",
          "type": "uint256"
        }
      ],
      "payable": false,
      "stateMutability": "view",
      "type": "function",
      "signature": "0x6da49b83"
    },
    {
      "constant": true,
      "inputs": [
        {
          "name": "",
          "type": "address"
        }
      ],
      "name": "giveRequest",
      "outputs": [
        {
          "name": "nodeAddress",
          "type": "address"
        },
        {
          "name": "powerUnits",
          "type": "uint256"
        }
      ],
      "payable": false,
      "stateMutability": "view",
      "type": "function",
      "signature": "0x7012d952"
    },
    {
      "constant": true,
      "inputs": [],
      "name": "VPaddress",
      "outputs": [
        {
          "name": "",
          "type": "address"
        }
      ],
      "payable": false,
      "stateMutability": "view",
      "type": "function",
      "signature": "0x708aee4c"
    },
    {
      "constant": true,
      "inputs": [
        {
          "name": "",
          "type": "address"
        }
      ],
      "name": "needRequest",
      "outputs": [
        {
          "name": "nodeAddress",
          "type": "address"
        },
        {
          "name": "powerUnits",
          "type": "uint256"
        }
      ],
      "payable": false,
      "stateMutability": "view",
      "type": "function",
      "signature": "0x9c21ddb3"
    },
    {
      "inputs": [],
      "payable": false,
      "stateMutability": "nonpayable",
      "type": "constructor",
      "signature": "constructor"
    },
    {
      "constant": false,
      "inputs": [
        {
          "name": "_name",
          "type": "string"
        },
        {
          "name": "_nodeAddress",
          "type": "address"
        }
      ],
      "name": "createNode",
      "outputs": [
        {
          "name": "",
          "type": "bool"
        }
      ],
      "payable": false,
      "stateMutability": "nonpayable",
      "type": "function",
      "signature": "0xc3ff34f3"
    },
    {
      "constant": true,
      "inputs": [
        {
          "name": "_address",
          "type": "address"
        }
      ],
      "name": "getNode",
      "outputs": [
        {
          "name": "_name",
          "type": "string"
        },
        {
          "name": "_addressNode",
          "type": "address"
        }
      ],
      "payable": false,
      "stateMutability": "view",
      "type": "function",
      "signature": "0x9d209048"
    },
    {
      "constant": true,
      "inputs": [
        {
          "name": "_address",
          "type": "address"
        }
      ],
      "name": "getVP",
      "outputs": [
        {
          "name": "_name",
          "type": "string"
        },
        {
          "name": "_addressVP",
          "type": "address"
        }
      ],
      "payable": false,
      "stateMutability": "view",
      "type": "function",
      "signature": "0x83fc2f4d"
    },
    {
      "constant": false,
      "inputs": [
        {
          "name": "_address",
          "type": "address"
        },
        {
          "name": "_power",
          "type": "uint256"
        }
      ],
      "name": "donatePower",
      "outputs": [
        {
          "name": "",
          "type": "bool"
        }
      ],
      "payable": false,
      "stateMutability": "nonpayable",
      "type": "function",
      "signature": "0x6f06889e"
    },
    {
      "constant": false,
      "inputs": [
        {
          "name": "_address",
          "type": "address"
        },
        {
          "name": "_power",
          "type": "uint256"
        }
      ],
      "name": "requirePower",
      "outputs": [
        {
          "name": "",
          "type": "bool"
        }
      ],
      "payable": false,
      "stateMutability": "nonpayable",
      "type": "function",
      "signature": "0x47bc810f"
    },
    {
      "constant": false,
      "inputs": [
        {
          "name": "_senderAddress",
          "type": "address"
        },
        {
          "name": "_recipientAddress",
          "type": "address"
        },
        {
          "name": "_power",
          "type": "uint256"
        }
      ],
      "name": "transferPower",
      "outputs": [
        {
          "name": "",
          "type": "bool"
        }
      ],
      "payable": false,
      "stateMutability": "nonpayable",
      "type": "function",
      "signature": "0x99fa9ceb"
    }
  ],
  "bytecode": "0x60806040523480156200001157600080fd5b5033600160006101000a81548173ffffffffffffffffffffffffffffffffffffffff021916908373ffffffffffffffffffffffffffffffffffffffff1602179055506040805190810160405280600a81526020017f477269645f41646d696e0000000000000000000000000000000000000000000081525060066000600160009054906101000a900473ffffffffffffffffffffffffffffffffffffffff1673ffffffffffffffffffffffffffffffffffffffff1673ffffffffffffffffffffffffffffffffffffffff168152602001908152602001600020600001908051906020019062000102929190620001ce565b50600160009054906101000a900473ffffffffffffffffffffffffffffffffffffffff1660066000600160009054906101000a900473ffffffffffffffffffffffffffffffffffffffff1673ffffffffffffffffffffffffffffffffffffffff1673ffffffffffffffffffffffffffffffffffffffff16815260200190815260200160002060010160006101000a81548173ffffffffffffffffffffffffffffffffffffffff021916908373ffffffffffffffffffffffffffffffffffffffff1602179055506200027d565b828054600181600116156101000203166002900490600052602060002090601f016020900481019282601f106200021157805160ff191683800117855562000242565b8280016001018555821562000242579182015b828111156200024157825182559160200191906001019062000224565b5b50905062000251919062000255565b5090565b6200027a91905b80821115620002765760008160009055506001016200025c565b5090565b90565b6114aa806200028d6000396000f3fe6080604052600436106100ba576000357c0100000000000000000000000000000000000000000000000000000000900463ffffffff1680631c53c280146100bf57806323c2e2bc146101a657806347bc810f146102a35780636da49b83146103165780636f06889e146103415780637012d952146103b4578063708aee4c1461044c57806383fc2f4d146104a357806399fa9ceb146105a05780639c21ddb3146106335780639d209048146106cb578063c3ff34f3146107c8575b600080fd5b3480156100cb57600080fd5b506100f8600480360360208110156100e257600080fd5b81019080803590602001909291905050506108c8565b60405180806020018373ffffffffffffffffffffffffffffffffffffffff1673ffffffffffffffffffffffffffffffffffffffff168152602001828103825284818151815260200191508051906020019080838360005b8381101561016a57808201518184015260208101905061014f565b50505050905090810190601f1680156101975780820380516001836020036101000a031916815260200191505b50935050505060405180910390f35b3480156101b257600080fd5b506101f5600480360360208110156101c957600080fd5b81019080803573ffffffffffffffffffffffffffffffffffffffff1690602001909291905050506109a4565b60405180806020018373ffffffffffffffffffffffffffffffffffffffff1673ffffffffffffffffffffffffffffffffffffffff168152602001828103825284818151815260200191508051906020019080838360005b8381101561026757808201518184015260208101905061024c565b50505050905090810190601f1680156102945780820380516001836020036101000a031916815260200191505b50935050505060405180910390f35b3480156102af57600080fd5b506102fc600480360360408110156102c657600080fd5b81019080803573ffffffffffffffffffffffffffffffffffffffff16906020019092919080359060200190929190505050610a80565b604051808215151515815260200191505060405180910390f35b34801561032257600080fd5b5061032b610b84565b6040518082815260200191505060405180910390f35b34801561034d57600080fd5b5061039a6004803603604081101561036457600080fd5b81019080803573ffffffffffffffffffffffffffffffffffffffff16906020019092919080359060200190929190505050610b8a565b604051808215151515815260200191505060405180910390f35b3480156103c057600080fd5b50610403600480360360208110156103d757600080fd5b81019080803573ffffffffffffffffffffffffffffffffffffffff169060200190929190505050610c8e565b604051808373ffffffffffffffffffffffffffffffffffffffff1673ffffffffffffffffffffffffffffffffffffffff1681526020018281526020019250505060405180910390f35b34801561045857600080fd5b50610461610cd2565b604051808273ffffffffffffffffffffffffffffffffffffffff1673ffffffffffffffffffffffffffffffffffffffff16815260200191505060405180910390f35b3480156104af57600080fd5b506104f2600480360360208110156104c657600080fd5b81019080803573ffffffffffffffffffffffffffffffffffffffff169060200190929190505050610cf8565b60405180806020018373ffffffffffffffffffffffffffffffffffffffff1673ffffffffffffffffffffffffffffffffffffffff168152602001828103825284818151815260200191508051906020019080838360005b83811015610564578082015181840152602081019050610549565b50505050905090810190601f1680156105915780820380516001836020036101000a031916815260200191505b50935050505060405180910390f35b3480156105ac57600080fd5b50610619600480360360608110156105c357600080fd5b81019080803573ffffffffffffffffffffffffffffffffffffffff169060200190929190803573ffffffffffffffffffffffffffffffffffffffff16906020019092919080359060200190929190505050610e49565b604051808215151515815260200191505060405180910390f35b34801561063f57600080fd5b506106826004803603602081101561065657600080fd5b81019080803573ffffffffffffffffffffffffffffffffffffffff169060200190929190505050611054565b604051808373ffffffffffffffffffffffffffffffffffffffff1673ffffffffffffffffffffffffffffffffffffffff1681526020018281526020019250505060405180910390f35b3480156106d757600080fd5b5061071a600480360360208110156106ee57600080fd5b81019080803573ffffffffffffffffffffffffffffffffffffffff169060200190929190505050611098565b60405180806020018373ffffffffffffffffffffffffffffffffffffffff1673ffffffffffffffffffffffffffffffffffffffff168152602001828103825284818151815260200191508051906020019080838360005b8381101561078c578082015181840152602081019050610771565b50505050905090810190601f1680156107b95780820380516001836020036101000a031916815260200191505b50935050505060405180910390f35b3480156107d457600080fd5b506108ae600480360360408110156107eb57600080fd5b810190808035906020019064010000000081111561080857600080fd5b82018360208201111561081a57600080fd5b8035906020019184600183028401116401000000008311171561083c57600080fd5b91908080601f016020809104026020016040519081016040528093929190818152602001838380828437600081840152601f19601f820116905080830192505050505050509192919290803573ffffffffffffffffffffffffffffffffffffffff1690602001909291905050506111e9565b604051808215151515815260200191505060405180910390f35b6002602052806000526040600020600091509050806000018054600181600116156101000203166002900480601f0160208091040260200160405190810160405280929190818152602001828054600181600116156101000203166002900480156109745780601f1061094957610100808354040283529160200191610974565b820191906000526020600020905b81548152906001019060200180831161095757829003601f168201915b5050505050908060010160009054906101000a900473ffffffffffffffffffffffffffffffffffffffff16905082565b6003602052806000526040600020600091509050806000018054600181600116156101000203166002900480601f016020809104026020016040519081016040528092919081815260200182805460018160011615610100020316600290048015610a505780601f10610a2557610100808354040283529160200191610a50565b820191906000526020600020905b815481529060010190602001808311610a3357829003601f168201915b5050505050908060010160009054906101000a900473ffffffffffffffffffffffffffffffffffffffff16905082565b60008273ffffffffffffffffffffffffffffffffffffffff163373ffffffffffffffffffffffffffffffffffffffff16141515610abc57600080fd5b60408051908101604052808473ffffffffffffffffffffffffffffffffffffffff16815260200183815250600560008573ffffffffffffffffffffffffffffffffffffffff1673ffffffffffffffffffffffffffffffffffffffff16815260200190815260200160002060008201518160000160006101000a81548173ffffffffffffffffffffffffffffffffffffffff021916908373ffffffffffffffffffffffffffffffffffffffff160217905550602082015181600101559050506001905092915050565b60005481565b60008273ffffffffffffffffffffffffffffffffffffffff163373ffffffffffffffffffffffffffffffffffffffff16141515610bc657600080fd5b60408051908101604052808473ffffffffffffffffffffffffffffffffffffffff16815260200183815250600460008573ffffffffffffffffffffffffffffffffffffffff1673ffffffffffffffffffffffffffffffffffffffff16815260200190815260200160002060008201518160000160006101000a81548173ffffffffffffffffffffffffffffffffffffffff021916908373ffffffffffffffffffffffffffffffffffffffff160217905550602082015181600101559050506001905092915050565b60046020528060005260406000206000915090508060000160009054906101000a900473ffffffffffffffffffffffffffffffffffffffff16908060010154905082565b600160009054906101000a900473ffffffffffffffffffffffffffffffffffffffff1681565b60606000600660008473ffffffffffffffffffffffffffffffffffffffff1673ffffffffffffffffffffffffffffffffffffffff1681526020019081526020016000206000018054600181600116156101000203166002900480601f016020809104026020016040519081016040528092919081815260200182805460018160011615610100020316600290048015610dd25780601f10610da757610100808354040283529160200191610dd2565b820191906000526020600020905b815481529060010190602001808311610db557829003601f168201915b5050505050915081600660008573ffffffffffffffffffffffffffffffffffffffff1673ffffffffffffffffffffffffffffffffffffffff16815260200190815260200160002060010160009054906101000a900473ffffffffffffffffffffffffffffffffffffffff1691508191509150915091565b6000600160009054906101000a900473ffffffffffffffffffffffffffffffffffffffff1673ffffffffffffffffffffffffffffffffffffffff163373ffffffffffffffffffffffffffffffffffffffff16141515610ea757600080fd5b8273ffffffffffffffffffffffffffffffffffffffff168473ffffffffffffffffffffffffffffffffffffffff1614151515610ee257600080fd5b81600460008673ffffffffffffffffffffffffffffffffffffffff1673ffffffffffffffffffffffffffffffffffffffff1681526020019081526020016000206001015410151515610f3357600080fd5b81600460008673ffffffffffffffffffffffffffffffffffffffff1673ffffffffffffffffffffffffffffffffffffffff1681526020019081526020016000206001015403600460008673ffffffffffffffffffffffffffffffffffffffff1673ffffffffffffffffffffffffffffffffffffffff1681526020019081526020016000206001018190555081600560008573ffffffffffffffffffffffffffffffffffffffff1673ffffffffffffffffffffffffffffffffffffffff1681526020019081526020016000206001015403600560008573ffffffffffffffffffffffffffffffffffffffff1673ffffffffffffffffffffffffffffffffffffffff16815260200190815260200160002060010181905550600190509392505050565b60056020528060005260406000206000915090508060000160009054906101000a900473ffffffffffffffffffffffffffffffffffffffff16908060010154905082565b60606000600360008473ffffffffffffffffffffffffffffffffffffffff1673ffffffffffffffffffffffffffffffffffffffff1681526020019081526020016000206000018054600181600116156101000203166002900480601f0160208091040260200160405190810160405280929190818152602001828054600181600116156101000203166002900480156111725780601f1061114757610100808354040283529160200191611172565b820191906000526020600020905b81548152906001019060200180831161115557829003601f168201915b5050505050915081600360008573ffffffffffffffffffffffffffffffffffffffff1673ffffffffffffffffffffffffffffffffffffffff16815260200190815260200160002060010160009054906101000a900473ffffffffffffffffffffffffffffffffffffffff1691508191509150915091565b6000600160009054906101000a900473ffffffffffffffffffffffffffffffffffffffff1673ffffffffffffffffffffffffffffffffffffffff163373ffffffffffffffffffffffffffffffffffffffff1614151561124757600080fd5b600080815480929190600101919050555060408051908101604052808481526020018373ffffffffffffffffffffffffffffffffffffffff16815250600260008054815260200190815260200160002060008201518160000190805190602001906112b39291906113d9565b5060208201518160010160006101000a81548173ffffffffffffffffffffffffffffffffffffffff021916908373ffffffffffffffffffffffffffffffffffffffff16021790555090505060408051908101604052808481526020018373ffffffffffffffffffffffffffffffffffffffff16815250600360008473ffffffffffffffffffffffffffffffffffffffff1673ffffffffffffffffffffffffffffffffffffffff16815260200190815260200160002060008201518160000190805190602001906113849291906113d9565b5060208201518160010160006101000a81548173ffffffffffffffffffffffffffffffffffffffff021916908373ffffffffffffffffffffffffffffffffffffffff1602179055509050506001905092915050565b828054600181600116156101000203166002900490600052602060002090601f016020900481019282601f1061141a57805160ff1916838001178555611448565b82800160010185558215611448579182015b8281111561144757825182559160200191906001019061142c565b5b5090506114559190611459565b5090565b61147b91905b8082111561147757600081600090555060010161145f565b5090565b9056fea165627a7a72305820fc8704ef823d870001f68badacf09dfbd2ed37efa655f77c661b107f1d8591530029",
  "source": "pragma solidity ^0.5.0;\n\ncontract SmartGrid {\n    \n    //State Variables\n    uint public nodeCount;\n    address public VPaddress;\n    \n    //Structure for storing Node Info\n    struct Node {\n        string name;\n        address nodeAddress;\n    }\n    \n    //Structure for storing VP Info\n    struct VP {\n        string name;\n        address VPaddress;\n    }\n    \n    //Structure for storing information of the nodes giving power\n    struct NodePowerGive {\n        address nodeAddress;\n        uint powerUnits;\n    }\n    \n    //Structure for storing information of the nodes requesting for power\n    struct NodePowerNeed {\n        address nodeAddress;\n        uint powerUnits;\n    }\n    \n    //Mappings\n    mapping(uint => Node) public nodes;\n    \n    mapping(address => Node) public nodeInfo;\n    \n    mapping(address => NodePowerGive) public giveRequest;\n    \n    mapping(address => NodePowerNeed) public needRequest;\n    \n    mapping(address => VP) VPinfo;\n    \n    //Modifiers\n    modifier onlyVP() {\n        require(msg.sender == VPaddress);\n        _;\n    }\n    \n    //Constructor to assign the contract initialising address as the VP\n    constructor() public {\n        VPaddress = msg.sender;\n        VPinfo[VPaddress].name = \"Grid_Admin\";\n        VPinfo[VPaddress].VPaddress = VPaddress;\n    }\n    \n    //Function to create a node\n    function createNode(string memory _name, address _nodeAddress) public onlyVP returns(bool) {\n        nodeCount++;\n        nodes[nodeCount] = Node(_name, _nodeAddress);\n        nodeInfo[_nodeAddress] = Node(_name, _nodeAddress);\n        return true;\n    }\n    \n    //Function to get the Node details\n    function getNode(address _address) public view returns(string memory _name, address _addressNode) {\n        return (_name = nodeInfo[_address].name, _addressNode = nodeInfo[_address].nodeAddress);\n    }\n    \n    //Function to get VP details\n    function getVP(address _address) public view returns(string memory _name, address _addressVP) {\n        return (_name = VPinfo[_address].name, _addressVP = VPinfo[_address].VPaddress);\n    }\n    \n    //Function to request to donate power\n    function donatePower(address _address, uint _power) public returns(bool) {\n        require(msg.sender == _address);\n        giveRequest[_address] = NodePowerGive(_address, _power);\n        return true;\n    } \n    \n    //Function to request for power\n    function requirePower(address _address, uint _power) public returns(bool) {\n        require(msg.sender == _address);\n        needRequest[_address] = NodePowerNeed(_address, _power);\n        return true;\n    }\n    \n    //Function to transfer the power\n    function transferPower(address _senderAddress, address _recipientAddress, uint _power) public onlyVP returns(bool) {\n        require(_senderAddress != _recipientAddress);\n        require(giveRequest[_senderAddress].powerUnits >= _power);\n        giveRequest[_senderAddress].powerUnits = giveRequest[_senderAddress].powerUnits - _power;\n        needRequest[_recipientAddress].powerUnits = needRequest[_recipientAddress].powerUnits - _power;\n        return true;\n    }\n    \n}",
  "sourcePath": "/home/shaggy/Ethereum Project/Electricity Grid - Ethereum/contracts/ElectricityGrid.sol",
  "compiler": {
    "name": "solc",
    "version": "0.5.0+commit.1d4f565a.Emscripten.clang"
  },
  "schemaVersion": "3.0.6",
  "updatedAt": "2019-06-11T18:35:31.557Z",
  "devdoc": {
    "methods": {}
  },
  "userdoc": {
    "methods": {}
  }
}