{
  "contractName": "SmartGrid",
  "abi": [
    {
      "constant": true,
      "inputs": [
        {
          "name": "",
          "type": "uint256"
        }
      ],
      "name": "nodes",
      "outputs": [
        {
          "name": "name",
          "type": "string"
        },
        {
          "name": "nodeAddress",
          "type": "address"
        }
      ],
      "payable": false,
      "stateMutability": "view",
      "type": "function",
      "signature": "0x1c53c280"
    },
    {
      "constant": true,
      "inputs": [],
      "name": "nodeCount",
      "outputs": [
        {
          "name": "",
          "type": "uint256"
        }
      ],
      "payable": false,
      "stateMutability": "view",
      "type": "function",
      "signature": "0x6da49b83"
    },
    {
      "constant": true,
      "inputs": [
        {
          "name": "",
          "type": "address"
        }
      ],
      "name": "giveRequest",
      "outputs": [
        {
          "name": "nodeAddress",
          "type": "address"
        },
        {
          "name": "powerUnits",
          "type": "uint256"
        }
      ],
      "payable": false,
      "stateMutability": "view",
      "type": "function",
      "signature": "0x7012d952"
    },
    {
      "constant": true,
      "inputs": [],
      "name": "VPaddress",
      "outputs": [
        {
          "name": "",
          "type": "address"
        }
      ],
      "payable": false,
      "stateMutability": "view",
      "type": "function",
      "signature": "0x708aee4c"
    },
    {
      "constant": true,
      "inputs": [
        {
          "name": "",
          "type": "address"
        }
      ],
      "name": "needRequest",
      "outputs": [
        {
          "name": "nodeAddress",
          "type": "address"
        },
        {
          "name": "powerUnits",
          "type": "uint256"
        }
      ],
      "payable": false,
      "stateMutability": "view",
      "type": "function",
      "signature": "0x9c21ddb3"
    },
    {
      "inputs": [],
      "payable": false,
      "stateMutability": "nonpayable",
      "type": "constructor",
      "signature": "constructor"
    },
    {
      "constant": false,
      "inputs": [
        {
          "name": "_name",
          "type": "string"
        },
        {
          "name": "_nodeAddress",
          "type": "address"
        }
      ],
      "name": "createNode",
      "outputs": [
        {
          "name": "",
          "type": "bool"
        }
      ],
      "payable": false,
      "stateMutability": "nonpayable",
      "type": "function",
      "signature": "0xc3ff34f3"
    },
    {
      "constant": true,
      "inputs": [
        {
          "name": "_address",
          "type": "address"
        }
      ],
      "name": "getNode",
      "outputs": [
        {
          "name": "_name",
          "type": "string"
        },
        {
          "name": "_addressNode",
          "type": "address"
        }
      ],
      "payable": false,
      "stateMutability": "view",
      "type": "function",
      "signature": "0x9d209048"
    },
    {
      "constant": true,
      "inputs": [
        {
          "name": "_address",
          "type": "address"
        }
      ],
      "name": "getVP",
      "outputs": [
        {
          "name": "_name",
          "type": "string"
        },
        {
          "name": "_addressVP",
          "type": "address"
        }
      ],
      "payable": false,
      "stateMutability": "view",
      "type": "function",
      "signature": "0x83fc2f4d"
    },
    {
      "constant": false,
      "inputs": [
        {
          "name": "_address",
          "type": "address"
        },
        {
          "name": "_power",
          "type": "uint256"
        }
      ],
      "name": "donatePower",
      "outputs": [
        {
          "name": "",
          "type": "bool"
        }
      ],
      "payable": false,
      "stateMutability": "nonpayable",
      "type": "function",
      "signature": "0x6f06889e"
    },
    {
      "constant": false,
      "inputs": [
        {
          "name": "_address",
          "type": "address"
        },
        {
          "name": "_power",
          "type": "uint256"
        }
      ],
      "name": "requirePower",
      "outputs": [
        {
          "name": "",
          "type": "bool"
        }
      ],
      "payable": false,
      "stateMutability": "nonpayable",
      "type": "function",
      "signature": "0x47bc810f"
    },
    {
      "constant": false,
      "inputs": [
        {
          "name": "_senderAddress",
          "type": "address"
        },
        {
          "name": "_recipientAddress",
          "type": "address"
        },
        {
          "name": "_power",
          "type": "uint256"
        }
      ],
      "name": "transferPower",
      "outputs": [
        {
          "name": "",
          "type": "bool"
        }
      ],
      "payable": false,
      "stateMutability": "nonpayable",
      "type": "function",
      "signature": "0x99fa9ceb"
    },
    {
      "constant": true,
      "inputs": [
        {
          "name": "_fromAddress",
          "type": "address"
        },
        {
          "name": "temp",
          "type": "uint256"
        }
      ],
      "name": "getNodeDetailsList",
      "outputs": [
        {
          "name": "fromAddress",
          "type": "address"
        },
        {
          "name": "toAddress",
          "type": "address"
        },
        {
          "name": "amount",
          "type": "uint256"
        },
        {
          "name": "count",
          "type": "uint256"
        }
      ],
      "payable": false,
      "stateMutability": "view",
      "type": "function",
      "signature": "0x329e012d"
    }
  ],
  "bytecode": "0x60806040523480156200001157600080fd5b5033600160006101000a81548173ffffffffffffffffffffffffffffffffffffffff021916908373ffffffffffffffffffffffffffffffffffffffff1602179055506040805190810160405280600a81526020017f477269645f41646d696e0000000000000000000000000000000000000000000081525060086000600160009054906101000a900473ffffffffffffffffffffffffffffffffffffffff1673ffffffffffffffffffffffffffffffffffffffff1673ffffffffffffffffffffffffffffffffffffffff168152602001908152602001600020600001908051906020019062000102929190620001ce565b50600160009054906101000a900473ffffffffffffffffffffffffffffffffffffffff1660086000600160009054906101000a900473ffffffffffffffffffffffffffffffffffffffff1673ffffffffffffffffffffffffffffffffffffffff1673ffffffffffffffffffffffffffffffffffffffff16815260200190815260200160002060010160006101000a81548173ffffffffffffffffffffffffffffffffffffffff021916908373ffffffffffffffffffffffffffffffffffffffff1602179055506200027d565b828054600181600116156101000203166002900490600052602060002090601f016020900481019282601f106200021157805160ff191683800117855562000242565b8280016001018555821562000242579182015b828111156200024157825182559160200191906001019062000224565b5b50905062000251919062000255565b5090565b6200027a91905b80821115620002765760008160009055506001016200025c565b5090565b90565b611a26806200028d6000396000f3fe6080604052600436106100ba576000357c0100000000000000000000000000000000000000000000000000000000900463ffffffff1680631c53c280146100bf578063329e012d146101a657806347bc810f146102825780636da49b83146102f55780636f06889e146103205780637012d95214610393578063708aee4c1461042b57806383fc2f4d1461048257806399fa9ceb1461057f5780639c21ddb3146106125780639d209048146106aa578063c3ff34f3146107a7575b600080fd5b3480156100cb57600080fd5b506100f8600480360360208110156100e257600080fd5b81019080803590602001909291905050506108a7565b60405180806020018373ffffffffffffffffffffffffffffffffffffffff1673ffffffffffffffffffffffffffffffffffffffff168152602001828103825284818151815260200191508051906020019080838360005b8381101561016a57808201518184015260208101905061014f565b50505050905090810190601f1680156101975780820380516001836020036101000a031916815260200191505b50935050505060405180910390f35b3480156101b257600080fd5b506101ff600480360360408110156101c957600080fd5b81019080803573ffffffffffffffffffffffffffffffffffffffff16906020019092919080359060200190929190505050610983565b604051808573ffffffffffffffffffffffffffffffffffffffff1673ffffffffffffffffffffffffffffffffffffffff1681526020018473ffffffffffffffffffffffffffffffffffffffff1673ffffffffffffffffffffffffffffffffffffffff16815260200183815260200182815260200194505050505060405180910390f35b34801561028e57600080fd5b506102db600480360360408110156102a557600080fd5b81019080803573ffffffffffffffffffffffffffffffffffffffff16906020019092919080359060200190929190505050610b2a565b604051808215151515815260200191505060405180910390f35b34801561030157600080fd5b5061030a610d4e565b6040518082815260200191505060405180910390f35b34801561032c57600080fd5b506103796004803603604081101561034357600080fd5b81019080803573ffffffffffffffffffffffffffffffffffffffff16906020019092919080359060200190929190505050610d54565b604051808215151515815260200191505060405180910390f35b34801561039f57600080fd5b506103e2600480360360208110156103b657600080fd5b81019080803573ffffffffffffffffffffffffffffffffffffffff169060200190929190505050610f78565b604051808373ffffffffffffffffffffffffffffffffffffffff1673ffffffffffffffffffffffffffffffffffffffff1681526020018281526020019250505060405180910390f35b34801561043757600080fd5b50610440610fbc565b604051808273ffffffffffffffffffffffffffffffffffffffff1673ffffffffffffffffffffffffffffffffffffffff16815260200191505060405180910390f35b34801561048e57600080fd5b506104d1600480360360208110156104a557600080fd5b81019080803573ffffffffffffffffffffffffffffffffffffffff169060200190929190505050610fe2565b60405180806020018373ffffffffffffffffffffffffffffffffffffffff1673ffffffffffffffffffffffffffffffffffffffff168152602001828103825284818151815260200191508051906020019080838360005b83811015610543578082015181840152602081019050610528565b50505050905090810190601f1680156105705780820380516001836020036101000a031916815260200191505b50935050505060405180910390f35b34801561058b57600080fd5b506105f8600480360360608110156105a257600080fd5b81019080803573ffffffffffffffffffffffffffffffffffffffff169060200190929190803573ffffffffffffffffffffffffffffffffffffffff16906020019092919080359060200190929190505050611133565b604051808215151515815260200191505060405180910390f35b34801561061e57600080fd5b506106616004803603602081101561063557600080fd5b81019080803573ffffffffffffffffffffffffffffffffffffffff1690602001909291905050506115d0565b604051808373ffffffffffffffffffffffffffffffffffffffff1673ffffffffffffffffffffffffffffffffffffffff1681526020018281526020019250505060405180910390f35b3480156106b657600080fd5b506106f9600480360360208110156106cd57600080fd5b81019080803573ffffffffffffffffffffffffffffffffffffffff169060200190929190505050611614565b60405180806020018373ffffffffffffffffffffffffffffffffffffffff1673ffffffffffffffffffffffffffffffffffffffff168152602001828103825284818151815260200191508051906020019080838360005b8381101561076b578082015181840152602081019050610750565b50505050905090810190601f1680156107985780820380516001836020036101000a031916815260200191505b50935050505060405180910390f35b3480156107b357600080fd5b5061088d600480360360408110156107ca57600080fd5b81019080803590602001906401000000008111156107e757600080fd5b8201836020820111156107f957600080fd5b8035906020019184600183028401116401000000008311171561081b57600080fd5b91908080601f016020809104026020016040519081016040528093929190818152602001838380828437600081840152601f19601f820116905080830192505050505050509192919290803573ffffffffffffffffffffffffffffffffffffffff169060200190929190505050611765565b604051808215151515815260200191505060405180910390f35b6004602052806000526040600020600091509050806000018054600181600116156101000203166002900480601f0160208091040260200160405190810160405280929190818152602001828054600181600116156101000203166002900480156109535780601f1061092857610100808354040283529160200191610953565b820191906000526020600020905b81548152906001019060200180831161093657829003601f168201915b5050505050908060010160009054906101000a900473ffffffffffffffffffffffffffffffffffffffff16905082565b600080600080600960008773ffffffffffffffffffffffffffffffffffffffff1673ffffffffffffffffffffffffffffffffffffffff1681526020019081526020016000206000808152602001908152602001600020600001549050600960008773ffffffffffffffffffffffffffffffffffffffff1673ffffffffffffffffffffffffffffffffffffffff168152602001908152602001600020600086815260200190815260200160002060010160009054906101000a900473ffffffffffffffffffffffffffffffffffffffff169350600960008773ffffffffffffffffffffffffffffffffffffffff1673ffffffffffffffffffffffffffffffffffffffff168152602001908152602001600020600086815260200190815260200160002060020160009054906101000a900473ffffffffffffffffffffffffffffffffffffffff169250600960008773ffffffffffffffffffffffffffffffffffffffff1673ffffffffffffffffffffffffffffffffffffffff168152602001908152602001600020600086815260200190815260200160002060030154915092959194509250565b60008273ffffffffffffffffffffffffffffffffffffffff163373ffffffffffffffffffffffffffffffffffffffff16141515610b6657600080fd5b600760008473ffffffffffffffffffffffffffffffffffffffff1673ffffffffffffffffffffffffffffffffffffffff168152602001908152602001600020600101546003819055506000600354141515610c85576003548201915060408051908101604052808473ffffffffffffffffffffffffffffffffffffffff16815260200183815250600760008573ffffffffffffffffffffffffffffffffffffffff1673ffffffffffffffffffffffffffffffffffffffff16815260200190815260200160002060008201518160000160006101000a81548173ffffffffffffffffffffffffffffffffffffffff021916908373ffffffffffffffffffffffffffffffffffffffff16021790555060208201518160010155905050610d44565b60408051908101604052808473ffffffffffffffffffffffffffffffffffffffff16815260200183815250600760008573ffffffffffffffffffffffffffffffffffffffff1673ffffffffffffffffffffffffffffffffffffffff16815260200190815260200160002060008201518160000160006101000a81548173ffffffffffffffffffffffffffffffffffffffff021916908373ffffffffffffffffffffffffffffffffffffffff160217905550602082015181600101559050505b6001905092915050565b60005481565b60008273ffffffffffffffffffffffffffffffffffffffff163373ffffffffffffffffffffffffffffffffffffffff16141515610d9057600080fd5b600660008473ffffffffffffffffffffffffffffffffffffffff1673ffffffffffffffffffffffffffffffffffffffff168152602001908152602001600020600101546002819055506000600254141515610eaf578160025401915060408051908101604052808473ffffffffffffffffffffffffffffffffffffffff16815260200183815250600660008573ffffffffffffffffffffffffffffffffffffffff1673ffffffffffffffffffffffffffffffffffffffff16815260200190815260200160002060008201518160000160006101000a81548173ffffffffffffffffffffffffffffffffffffffff021916908373ffffffffffffffffffffffffffffffffffffffff16021790555060208201518160010155905050610f6e565b60408051908101604052808473ffffffffffffffffffffffffffffffffffffffff16815260200183815250600660008573ffffffffffffffffffffffffffffffffffffffff1673ffffffffffffffffffffffffffffffffffffffff16815260200190815260200160002060008201518160000160006101000a81548173ffffffffffffffffffffffffffffffffffffffff021916908373ffffffffffffffffffffffffffffffffffffffff160217905550602082015181600101559050505b6001905092915050565b60066020528060005260406000206000915090508060000160009054906101000a900473ffffffffffffffffffffffffffffffffffffffff16908060010154905082565b600160009054906101000a900473ffffffffffffffffffffffffffffffffffffffff1681565b60606000600860008473ffffffffffffffffffffffffffffffffffffffff1673ffffffffffffffffffffffffffffffffffffffff1681526020019081526020016000206000018054600181600116156101000203166002900480601f0160208091040260200160405190810160405280929190818152602001828054600181600116156101000203166002900480156110bc5780601f10611091576101008083540402835291602001916110bc565b820191906000526020600020905b81548152906001019060200180831161109f57829003601f168201915b5050505050915081600860008573ffffffffffffffffffffffffffffffffffffffff1673ffffffffffffffffffffffffffffffffffffffff16815260200190815260200160002060010160009054906101000a900473ffffffffffffffffffffffffffffffffffffffff1691508191509150915091565b6000600160009054906101000a900473ffffffffffffffffffffffffffffffffffffffff1673ffffffffffffffffffffffffffffffffffffffff163373ffffffffffffffffffffffffffffffffffffffff1614151561119157600080fd5b8273ffffffffffffffffffffffffffffffffffffffff168473ffffffffffffffffffffffffffffffffffffffff16141515156111cc57600080fd5b81600660008673ffffffffffffffffffffffffffffffffffffffff1673ffffffffffffffffffffffffffffffffffffffff168152602001908152602001600020600101541015151561121d57600080fd5b6000600760008573ffffffffffffffffffffffffffffffffffffffff1673ffffffffffffffffffffffffffffffffffffffff168152602001908152602001600020600101541415151561126f57600080fd5b600082600660008773ffffffffffffffffffffffffffffffffffffffff1673ffffffffffffffffffffffffffffffffffffffff1681526020019081526020016000206001015403600660008773ffffffffffffffffffffffffffffffffffffffff1673ffffffffffffffffffffffffffffffffffffffff1681526020019081526020016000206001018190555082600760008673ffffffffffffffffffffffffffffffffffffffff1673ffffffffffffffffffffffffffffffffffffffff1681526020019081526020016000206001015403600760008673ffffffffffffffffffffffffffffffffffffffff1673ffffffffffffffffffffffffffffffffffffffff16815260200190815260200160002060010181905550600960008673ffffffffffffffffffffffffffffffffffffffff1673ffffffffffffffffffffffffffffffffffffffff1681526020019081526020016000206000808152602001908152602001600020600001549050808060010191505084600960008773ffffffffffffffffffffffffffffffffffffffff1673ffffffffffffffffffffffffffffffffffffffff168152602001908152602001600020600083815260200190815260200160002060010160006101000a81548173ffffffffffffffffffffffffffffffffffffffff021916908373ffffffffffffffffffffffffffffffffffffffff16021790555083600960008773ffffffffffffffffffffffffffffffffffffffff1673ffffffffffffffffffffffffffffffffffffffff168152602001908152602001600020600083815260200190815260200160002060020160006101000a81548173ffffffffffffffffffffffffffffffffffffffff021916908373ffffffffffffffffffffffffffffffffffffffff16021790555082600960008773ffffffffffffffffffffffffffffffffffffffff1673ffffffffffffffffffffffffffffffffffffffff168152602001908152602001600020600083815260200190815260200160002060030181905550600960008673ffffffffffffffffffffffffffffffffffffffff1673ffffffffffffffffffffffffffffffffffffffff16815260200190815260200160002060008081526020019081526020016000206000016000815480929190600101919050555060019150509392505050565b60076020528060005260406000206000915090508060000160009054906101000a900473ffffffffffffffffffffffffffffffffffffffff16908060010154905082565b60606000600560008473ffffffffffffffffffffffffffffffffffffffff1673ffffffffffffffffffffffffffffffffffffffff1681526020019081526020016000206000018054600181600116156101000203166002900480601f0160208091040260200160405190810160405280929190818152602001828054600181600116156101000203166002900480156116ee5780601f106116c3576101008083540402835291602001916116ee565b820191906000526020600020905b8154815290600101906020018083116116d157829003601f168201915b5050505050915081600560008573ffffffffffffffffffffffffffffffffffffffff1673ffffffffffffffffffffffffffffffffffffffff16815260200190815260200160002060010160009054906101000a900473ffffffffffffffffffffffffffffffffffffffff1691508191509150915091565b6000600160009054906101000a900473ffffffffffffffffffffffffffffffffffffffff1673ffffffffffffffffffffffffffffffffffffffff163373ffffffffffffffffffffffffffffffffffffffff161415156117c357600080fd5b600080815480929190600101919050555060408051908101604052808481526020018373ffffffffffffffffffffffffffffffffffffffff168152506004600080548152602001908152602001600020600082015181600001908051906020019061182f929190611955565b5060208201518160010160006101000a81548173ffffffffffffffffffffffffffffffffffffffff021916908373ffffffffffffffffffffffffffffffffffffffff16021790555090505060408051908101604052808481526020018373ffffffffffffffffffffffffffffffffffffffff16815250600560008473ffffffffffffffffffffffffffffffffffffffff1673ffffffffffffffffffffffffffffffffffffffff1681526020019081526020016000206000820151816000019080519060200190611900929190611955565b5060208201518160010160006101000a81548173ffffffffffffffffffffffffffffffffffffffff021916908373ffffffffffffffffffffffffffffffffffffffff1602179055509050506001905092915050565b828054600181600116156101000203166002900490600052602060002090601f016020900481019282601f1061199657805160ff19168380011785556119c4565b828001600101855582156119c4579182015b828111156119c35782518255916020019190600101906119a8565b5b5090506119d191906119d5565b5090565b6119f791905b808211156119f35760008160009055506001016119db565b5090565b9056fea165627a7a72305820344b16859329e14e6db96e7f942cfe44ac0d341b0ce9852e93dc7672cdda69740029",
  "source": "pragma solidity ^0.5.0;\n\ncontract SmartGrid {\n    \n    //State Variables\n    uint public nodeCount;\n    address public VPaddress;\n    uint private givePowerAmount;\n    uint private requestPowerAmount;\n    \n    //Structure for storing Node Info\n    struct Node {\n        string name;\n        address nodeAddress;\n    }\n    \n    struct nodeDetails{\n        uint count;\n        address fromAddress;\n        address toAddress;\n        uint amount;\n    }\n    \n    //Structure for storing VP Info\n    struct VP {\n        string name;\n        address VPaddress;\n    }\n    \n    //Structure for storing information of the nodes giving power\n    struct NodePowerGive {\n        address nodeAddress;\n        uint powerUnits;\n    }\n    \n    //Structure for storing information of the nodes requesting for power\n    struct NodePowerNeed {\n        address nodeAddress;\n        uint powerUnits;\n    }\n    \n    //Mappings\n    mapping(uint => Node) public nodes;\n    \n    mapping(address => Node) nodeInfo;\n    \n    mapping(address => NodePowerGive) public giveRequest;\n    \n    mapping(address => NodePowerNeed) public needRequest;\n    \n    mapping(address => VP) VPinfo;\n    \n    mapping(address => mapping(uint => nodeDetails)) nodeDetailsList;\n    \n    //Modifiers\n    modifier onlyVP() {\n        require(msg.sender == VPaddress);\n        _;\n    }\n    \n    //Constructor to assign the contract initialising address as the VP\n    constructor() public {\n        VPaddress = msg.sender;\n        VPinfo[VPaddress].name = \"Grid_Admin\";\n        VPinfo[VPaddress].VPaddress = VPaddress;\n    }\n    \n    //Function to create a node\n    function createNode(string memory _name, address _nodeAddress) public onlyVP returns(bool) {\n        nodeCount++;\n        nodes[nodeCount] = Node(_name, _nodeAddress);\n        nodeInfo[_nodeAddress] = Node(_name, _nodeAddress);\n        return true;\n    }\n    \n    //Function to get the Node details\n    function getNode(address _address) public view returns(string memory _name, address _addressNode) {\n        return (_name = nodeInfo[_address].name, _addressNode = nodeInfo[_address].nodeAddress);\n    }\n    \n    //Function to get VP details\n    function getVP(address _address) public view returns(string memory _name, address _addressVP) {\n        return (_name = VPinfo[_address].name, _addressVP = VPinfo[_address].VPaddress);\n    }\n    \n    //Function to donate power\n    function donatePower(address _address, uint _power) public returns(bool) {\n        require(msg.sender == _address);\n        givePowerAmount = giveRequest[_address].powerUnits;\n        if(givePowerAmount != 0) {\n            _power = givePowerAmount + _power;\n            giveRequest[_address] = NodePowerGive(_address, _power);\n        }\n        else {\n            giveRequest[_address] = NodePowerGive(_address, _power);\n        }\n        \n        return true;\n    } \n    \n    //Function to request for power\n    function requirePower(address _address, uint _power) public returns(bool) {\n        require(msg.sender == _address);\n        requestPowerAmount = needRequest[_address].powerUnits;\n        if(requestPowerAmount != 0) {\n            _power = _power + requestPowerAmount;\n            needRequest[_address] = NodePowerNeed(_address, _power);\n        }\n        else {\n        needRequest[_address] = NodePowerNeed(_address, _power);\n        }\n        \n        return true;\n    }\n    \n    //Function to transfer the power\n    function transferPower(address _senderAddress, address _recipientAddress, uint _power) public onlyVP returns(bool) {\n        require(_senderAddress != _recipientAddress);\n        require(giveRequest[_senderAddress].powerUnits >= _power);\n        require(needRequest[_recipientAddress].powerUnits != 0);\n        uint temp_count;\n        giveRequest[_senderAddress].powerUnits = giveRequest[_senderAddress].powerUnits - _power;\n        needRequest[_recipientAddress].powerUnits = needRequest[_recipientAddress].powerUnits - _power;\n        temp_count = nodeDetailsList[_senderAddress][0].count;\n        temp_count++;\n        nodeDetailsList[_senderAddress][temp_count].fromAddress = _senderAddress;\n        nodeDetailsList[_senderAddress][temp_count].toAddress = _recipientAddress;\n        nodeDetailsList[_senderAddress][temp_count].amount = _power;\n        nodeDetailsList[_senderAddress][0].count++;\n        \n        return true;\n    }\n    \n    //Function to retrieve Node Details\n    function getNodeDetailsList(address _fromAddress, uint temp) public view returns(address fromAddress, address toAddress, uint amount,uint count) {\n        count = nodeDetailsList[_fromAddress][0].count;\n        fromAddress = nodeDetailsList[_fromAddress][temp].fromAddress;\n        toAddress = nodeDetailsList[_fromAddress][temp].toAddress;\n        amount = nodeDetailsList[_fromAddress][temp].amount;\n        \n    }\n    \n}",
  "sourcePath": "/home/shaggy/Ethereum Project/Electricity Grid - Ethereum/contracts/ElectricityGrid.sol",
  "compiler": {
    "name": "solc",
    "version": "0.5.0+commit.1d4f565a.Emscripten.clang"
  },
  "schemaVersion": "3.0.6",
  "updatedAt": "2019-06-14T07:05:43.831Z",
  "devdoc": {
    "methods": {}
  },
  "userdoc": {
    "methods": {}
  }
}