{
  "contractName": "SmartGrid",
  "abi": [
    {
      "inputs": [],
      "payable": false,
      "stateMutability": "nonpayable",
      "type": "constructor"
    },
    {
      "constant": true,
      "inputs": [],
      "name": "VPaddress",
      "outputs": [
        {
          "internalType": "address",
          "name": "",
          "type": "address"
        }
      ],
      "payable": false,
      "stateMutability": "view",
      "type": "function"
    },
    {
      "constant": true,
      "inputs": [
        {
          "internalType": "address",
          "name": "",
          "type": "address"
        }
      ],
      "name": "giveRequest",
      "outputs": [
        {
          "internalType": "address",
          "name": "nodeAddress",
          "type": "address"
        },
        {
          "internalType": "uint256",
          "name": "powerUnits",
          "type": "uint256"
        }
      ],
      "payable": false,
      "stateMutability": "view",
      "type": "function"
    },
    {
      "constant": true,
      "inputs": [
        {
          "internalType": "address",
          "name": "",
          "type": "address"
        }
      ],
      "name": "needRequest",
      "outputs": [
        {
          "internalType": "address",
          "name": "nodeAddress",
          "type": "address"
        },
        {
          "internalType": "uint256",
          "name": "powerUnits",
          "type": "uint256"
        }
      ],
      "payable": false,
      "stateMutability": "view",
      "type": "function"
    },
    {
      "constant": true,
      "inputs": [],
      "name": "nodeCount",
      "outputs": [
        {
          "internalType": "uint256",
          "name": "",
          "type": "uint256"
        }
      ],
      "payable": false,
      "stateMutability": "view",
      "type": "function"
    },
    {
      "constant": true,
      "inputs": [
        {
          "internalType": "uint256",
          "name": "",
          "type": "uint256"
        }
      ],
      "name": "nodes",
      "outputs": [
        {
          "internalType": "string",
          "name": "name",
          "type": "string"
        },
        {
          "internalType": "address",
          "name": "nodeAddress",
          "type": "address"
        }
      ],
      "payable": false,
      "stateMutability": "view",
      "type": "function"
    },
    {
      "constant": false,
      "inputs": [
        {
          "internalType": "string",
          "name": "_name",
          "type": "string"
        },
        {
          "internalType": "address",
          "name": "_nodeAddress",
          "type": "address"
        }
      ],
      "name": "createNode",
      "outputs": [
        {
          "internalType": "bool",
          "name": "",
          "type": "bool"
        }
      ],
      "payable": false,
      "stateMutability": "nonpayable",
      "type": "function"
    },
    {
      "constant": true,
      "inputs": [
        {
          "internalType": "address",
          "name": "_address",
          "type": "address"
        }
      ],
      "name": "getNode",
      "outputs": [
        {
          "internalType": "string",
          "name": "_name",
          "type": "string"
        },
        {
          "internalType": "address",
          "name": "_addressNode",
          "type": "address"
        }
      ],
      "payable": false,
      "stateMutability": "view",
      "type": "function"
    },
    {
      "constant": true,
      "inputs": [
        {
          "internalType": "address",
          "name": "_address",
          "type": "address"
        }
      ],
      "name": "getVP",
      "outputs": [
        {
          "internalType": "string",
          "name": "_name",
          "type": "string"
        },
        {
          "internalType": "address",
          "name": "_addressVP",
          "type": "address"
        }
      ],
      "payable": false,
      "stateMutability": "view",
      "type": "function"
    },
    {
      "constant": false,
      "inputs": [
        {
          "internalType": "address",
          "name": "_address",
          "type": "address"
        },
        {
          "internalType": "uint256",
          "name": "_power",
          "type": "uint256"
        }
      ],
      "name": "donatePower",
      "outputs": [
        {
          "internalType": "bool",
          "name": "",
          "type": "bool"
        }
      ],
      "payable": false,
      "stateMutability": "nonpayable",
      "type": "function"
    },
    {
      "constant": false,
      "inputs": [
        {
          "internalType": "address",
          "name": "_address",
          "type": "address"
        },
        {
          "internalType": "uint256",
          "name": "_power",
          "type": "uint256"
        }
      ],
      "name": "requirePower",
      "outputs": [
        {
          "internalType": "bool",
          "name": "",
          "type": "bool"
        }
      ],
      "payable": false,
      "stateMutability": "nonpayable",
      "type": "function"
    },
    {
      "constant": false,
      "inputs": [
        {
          "internalType": "address",
          "name": "_senderAddress",
          "type": "address"
        },
        {
          "internalType": "address",
          "name": "_recipientAddress",
          "type": "address"
        },
        {
          "internalType": "uint256",
          "name": "_power",
          "type": "uint256"
        }
      ],
      "name": "transferPower",
      "outputs": [
        {
          "internalType": "bool",
          "name": "",
          "type": "bool"
        }
      ],
      "payable": false,
      "stateMutability": "nonpayable",
      "type": "function"
    },
    {
      "constant": true,
      "inputs": [
        {
          "internalType": "address",
          "name": "_fromAddress",
          "type": "address"
        },
        {
          "internalType": "uint256",
          "name": "temp",
          "type": "uint256"
        }
      ],
      "name": "getNodeDetailsList",
      "outputs": [
        {
          "internalType": "address",
          "name": "fromAddress",
          "type": "address"
        },
        {
          "internalType": "address",
          "name": "toAddress",
          "type": "address"
        },
        {
          "internalType": "uint256",
          "name": "amount",
          "type": "uint256"
        },
        {
          "internalType": "uint256",
          "name": "count",
          "type": "uint256"
        }
      ],
      "payable": false,
      "stateMutability": "view",
      "type": "function"
    }
  ],
  "bytecode": "0x60806040523480156200001157600080fd5b5033600160006101000a81548173ffffffffffffffffffffffffffffffffffffffff021916908373ffffffffffffffffffffffffffffffffffffffff1602179055506040518060400160405280600a81526020017f477269645f41646d696e0000000000000000000000000000000000000000000081525060086000600160009054906101000a900473ffffffffffffffffffffffffffffffffffffffff1673ffffffffffffffffffffffffffffffffffffffff1673ffffffffffffffffffffffffffffffffffffffff168152602001908152602001600020600001908051906020019062000102929190620001ce565b50600160009054906101000a900473ffffffffffffffffffffffffffffffffffffffff1660086000600160009054906101000a900473ffffffffffffffffffffffffffffffffffffffff1673ffffffffffffffffffffffffffffffffffffffff1673ffffffffffffffffffffffffffffffffffffffff16815260200190815260200160002060010160006101000a81548173ffffffffffffffffffffffffffffffffffffffff021916908373ffffffffffffffffffffffffffffffffffffffff1602179055506200027d565b828054600181600116156101000203166002900490600052602060002090601f016020900481019282601f106200021157805160ff191683800117855562000242565b8280016001018555821562000242579182015b828111156200024157825182559160200191906001019062000224565b5b50905062000251919062000255565b5090565b6200027a91905b80821115620002765760008160009055506001016200025c565b5090565b90565b61197b806200028d6000396000f3fe608060405234801561001057600080fd5b50600436106100b45760003560e01c8063708aee4c11610071578063708aee4c146103d757806383fc2f4d1461042157806399fa9ceb146105115780639c21ddb3146105975780639d20904814610622578063c3ff34f314610712576100b4565b80631c53c280146100b9578063329e012d1461019357806347bc810f146102625780636da49b83146102c85780636f06889e146102e65780637012d9521461034c575b600080fd5b6100e5600480360360208110156100cf57600080fd5b8101908080359060200190929190505050610805565b60405180806020018373ffffffffffffffffffffffffffffffffffffffff1673ffffffffffffffffffffffffffffffffffffffff168152602001828103825284818151815260200191508051906020019080838360005b8381101561015757808201518184015260208101905061013c565b50505050905090810190601f1680156101845780820380516001836020036101000a031916815260200191505b50935050505060405180910390f35b6101df600480360360408110156101a957600080fd5b81019080803573ffffffffffffffffffffffffffffffffffffffff169060200190929190803590602001909291905050506108e1565b604051808573ffffffffffffffffffffffffffffffffffffffff1673ffffffffffffffffffffffffffffffffffffffff1681526020018473ffffffffffffffffffffffffffffffffffffffff1673ffffffffffffffffffffffffffffffffffffffff16815260200183815260200182815260200194505050505060405180910390f35b6102ae6004803603604081101561027857600080fd5b81019080803573ffffffffffffffffffffffffffffffffffffffff16906020019092919080359060200190929190505050610a88565b604051808215151515815260200191505060405180910390f35b6102d0610ca8565b6040518082815260200191505060405180910390f35b610332600480360360408110156102fc57600080fd5b81019080803573ffffffffffffffffffffffffffffffffffffffff16906020019092919080359060200190929190505050610cae565b604051808215151515815260200191505060405180910390f35b61038e6004803603602081101561036257600080fd5b81019080803573ffffffffffffffffffffffffffffffffffffffff169060200190929190505050610ece565b604051808373ffffffffffffffffffffffffffffffffffffffff1673ffffffffffffffffffffffffffffffffffffffff1681526020018281526020019250505060405180910390f35b6103df610f12565b604051808273ffffffffffffffffffffffffffffffffffffffff1673ffffffffffffffffffffffffffffffffffffffff16815260200191505060405180910390f35b6104636004803603602081101561043757600080fd5b81019080803573ffffffffffffffffffffffffffffffffffffffff169060200190929190505050610f38565b60405180806020018373ffffffffffffffffffffffffffffffffffffffff1673ffffffffffffffffffffffffffffffffffffffff168152602001828103825284818151815260200191508051906020019080838360005b838110156104d55780820151818401526020810190506104ba565b50505050905090810190601f1680156105025780820380516001836020036101000a031916815260200191505b50935050505060405180910390f35b61057d6004803603606081101561052757600080fd5b81019080803573ffffffffffffffffffffffffffffffffffffffff169060200190929190803573ffffffffffffffffffffffffffffffffffffffff16906020019092919080359060200190929190505050611089565b604051808215151515815260200191505060405180910390f35b6105d9600480360360208110156105ad57600080fd5b81019080803573ffffffffffffffffffffffffffffffffffffffff16906020019092919050505061151e565b604051808373ffffffffffffffffffffffffffffffffffffffff1673ffffffffffffffffffffffffffffffffffffffff1681526020018281526020019250505060405180910390f35b6106646004803603602081101561063857600080fd5b81019080803573ffffffffffffffffffffffffffffffffffffffff169060200190929190505050611562565b60405180806020018373ffffffffffffffffffffffffffffffffffffffff1673ffffffffffffffffffffffffffffffffffffffff168152602001828103825284818151815260200191508051906020019080838360005b838110156106d65780820151818401526020810190506106bb565b50505050905090810190601f1680156107035780820380516001836020036101000a031916815260200191505b50935050505060405180910390f35b6107eb6004803603604081101561072857600080fd5b810190808035906020019064010000000081111561074557600080fd5b82018360208201111561075757600080fd5b8035906020019184600183028401116401000000008311171561077957600080fd5b91908080601f016020809104026020016040519081016040528093929190818152602001838380828437600081840152601f19601f820116905080830192505050505050509192919290803573ffffffffffffffffffffffffffffffffffffffff1690602001909291905050506116b3565b604051808215151515815260200191505060405180910390f35b6004602052806000526040600020600091509050806000018054600181600116156101000203166002900480601f0160208091040260200160405190810160405280929190818152602001828054600181600116156101000203166002900480156108b15780601f10610886576101008083540402835291602001916108b1565b820191906000526020600020905b81548152906001019060200180831161089457829003601f168201915b5050505050908060010160009054906101000a900473ffffffffffffffffffffffffffffffffffffffff16905082565b600080600080600960008773ffffffffffffffffffffffffffffffffffffffff1673ffffffffffffffffffffffffffffffffffffffff1681526020019081526020016000206000808152602001908152602001600020600001549050600960008773ffffffffffffffffffffffffffffffffffffffff1673ffffffffffffffffffffffffffffffffffffffff168152602001908152602001600020600086815260200190815260200160002060010160009054906101000a900473ffffffffffffffffffffffffffffffffffffffff169350600960008773ffffffffffffffffffffffffffffffffffffffff1673ffffffffffffffffffffffffffffffffffffffff168152602001908152602001600020600086815260200190815260200160002060020160009054906101000a900473ffffffffffffffffffffffffffffffffffffffff169250600960008773ffffffffffffffffffffffffffffffffffffffff1673ffffffffffffffffffffffffffffffffffffffff168152602001908152602001600020600086815260200190815260200160002060030154915092959194509250565b60008273ffffffffffffffffffffffffffffffffffffffff163373ffffffffffffffffffffffffffffffffffffffff1614610ac257600080fd5b600760008473ffffffffffffffffffffffffffffffffffffffff1673ffffffffffffffffffffffffffffffffffffffff16815260200190815260200160002060010154600381905550600060035414610bdf576003548201915060405180604001604052808473ffffffffffffffffffffffffffffffffffffffff16815260200183815250600760008573ffffffffffffffffffffffffffffffffffffffff1673ffffffffffffffffffffffffffffffffffffffff16815260200190815260200160002060008201518160000160006101000a81548173ffffffffffffffffffffffffffffffffffffffff021916908373ffffffffffffffffffffffffffffffffffffffff16021790555060208201518160010155905050610c9e565b60405180604001604052808473ffffffffffffffffffffffffffffffffffffffff16815260200183815250600760008573ffffffffffffffffffffffffffffffffffffffff1673ffffffffffffffffffffffffffffffffffffffff16815260200190815260200160002060008201518160000160006101000a81548173ffffffffffffffffffffffffffffffffffffffff021916908373ffffffffffffffffffffffffffffffffffffffff160217905550602082015181600101559050505b6001905092915050565b60005481565b60008273ffffffffffffffffffffffffffffffffffffffff163373ffffffffffffffffffffffffffffffffffffffff1614610ce857600080fd5b600660008473ffffffffffffffffffffffffffffffffffffffff1673ffffffffffffffffffffffffffffffffffffffff16815260200190815260200160002060010154600281905550600060025414610e05578160025401915060405180604001604052808473ffffffffffffffffffffffffffffffffffffffff16815260200183815250600660008573ffffffffffffffffffffffffffffffffffffffff1673ffffffffffffffffffffffffffffffffffffffff16815260200190815260200160002060008201518160000160006101000a81548173ffffffffffffffffffffffffffffffffffffffff021916908373ffffffffffffffffffffffffffffffffffffffff16021790555060208201518160010155905050610ec4565b60405180604001604052808473ffffffffffffffffffffffffffffffffffffffff16815260200183815250600660008573ffffffffffffffffffffffffffffffffffffffff1673ffffffffffffffffffffffffffffffffffffffff16815260200190815260200160002060008201518160000160006101000a81548173ffffffffffffffffffffffffffffffffffffffff021916908373ffffffffffffffffffffffffffffffffffffffff160217905550602082015181600101559050505b6001905092915050565b60066020528060005260406000206000915090508060000160009054906101000a900473ffffffffffffffffffffffffffffffffffffffff16908060010154905082565b600160009054906101000a900473ffffffffffffffffffffffffffffffffffffffff1681565b60606000600860008473ffffffffffffffffffffffffffffffffffffffff1673ffffffffffffffffffffffffffffffffffffffff1681526020019081526020016000206000018054600181600116156101000203166002900480601f0160208091040260200160405190810160405280929190818152602001828054600181600116156101000203166002900480156110125780601f10610fe757610100808354040283529160200191611012565b820191906000526020600020905b815481529060010190602001808311610ff557829003601f168201915b5050505050915081600860008573ffffffffffffffffffffffffffffffffffffffff1673ffffffffffffffffffffffffffffffffffffffff16815260200190815260200160002060010160009054906101000a900473ffffffffffffffffffffffffffffffffffffffff1691508191509150915091565b6000600160009054906101000a900473ffffffffffffffffffffffffffffffffffffffff1673ffffffffffffffffffffffffffffffffffffffff163373ffffffffffffffffffffffffffffffffffffffff16146110e557600080fd5b8273ffffffffffffffffffffffffffffffffffffffff168473ffffffffffffffffffffffffffffffffffffffff16141561111e57600080fd5b81600660008673ffffffffffffffffffffffffffffffffffffffff1673ffffffffffffffffffffffffffffffffffffffff16815260200190815260200160002060010154101561116d57600080fd5b6000600760008573ffffffffffffffffffffffffffffffffffffffff1673ffffffffffffffffffffffffffffffffffffffff1681526020019081526020016000206001015414156111bd57600080fd5b600082600660008773ffffffffffffffffffffffffffffffffffffffff1673ffffffffffffffffffffffffffffffffffffffff1681526020019081526020016000206001015403600660008773ffffffffffffffffffffffffffffffffffffffff1673ffffffffffffffffffffffffffffffffffffffff1681526020019081526020016000206001018190555082600760008673ffffffffffffffffffffffffffffffffffffffff1673ffffffffffffffffffffffffffffffffffffffff1681526020019081526020016000206001015403600760008673ffffffffffffffffffffffffffffffffffffffff1673ffffffffffffffffffffffffffffffffffffffff16815260200190815260200160002060010181905550600960008673ffffffffffffffffffffffffffffffffffffffff1673ffffffffffffffffffffffffffffffffffffffff1681526020019081526020016000206000808152602001908152602001600020600001549050808060010191505084600960008773ffffffffffffffffffffffffffffffffffffffff1673ffffffffffffffffffffffffffffffffffffffff168152602001908152602001600020600083815260200190815260200160002060010160006101000a81548173ffffffffffffffffffffffffffffffffffffffff021916908373ffffffffffffffffffffffffffffffffffffffff16021790555083600960008773ffffffffffffffffffffffffffffffffffffffff1673ffffffffffffffffffffffffffffffffffffffff168152602001908152602001600020600083815260200190815260200160002060020160006101000a81548173ffffffffffffffffffffffffffffffffffffffff021916908373ffffffffffffffffffffffffffffffffffffffff16021790555082600960008773ffffffffffffffffffffffffffffffffffffffff1673ffffffffffffffffffffffffffffffffffffffff168152602001908152602001600020600083815260200190815260200160002060030181905550600960008673ffffffffffffffffffffffffffffffffffffffff1673ffffffffffffffffffffffffffffffffffffffff16815260200190815260200160002060008081526020019081526020016000206000016000815480929190600101919050555060019150509392505050565b60076020528060005260406000206000915090508060000160009054906101000a900473ffffffffffffffffffffffffffffffffffffffff16908060010154905082565b60606000600560008473ffffffffffffffffffffffffffffffffffffffff1673ffffffffffffffffffffffffffffffffffffffff1681526020019081526020016000206000018054600181600116156101000203166002900480601f01602080910402602001604051908101604052809291908181526020018280546001816001161561010002031660029004801561163c5780601f106116115761010080835404028352916020019161163c565b820191906000526020600020905b81548152906001019060200180831161161f57829003601f168201915b5050505050915081600560008573ffffffffffffffffffffffffffffffffffffffff1673ffffffffffffffffffffffffffffffffffffffff16815260200190815260200160002060010160009054906101000a900473ffffffffffffffffffffffffffffffffffffffff1691508191509150915091565b6000600160009054906101000a900473ffffffffffffffffffffffffffffffffffffffff1673ffffffffffffffffffffffffffffffffffffffff163373ffffffffffffffffffffffffffffffffffffffff161461170f57600080fd5b600080815480929190600101919050555060405180604001604052808481526020018373ffffffffffffffffffffffffffffffffffffffff168152506004600080548152602001908152602001600020600082015181600001908051906020019061177b9291906118a1565b5060208201518160010160006101000a81548173ffffffffffffffffffffffffffffffffffffffff021916908373ffffffffffffffffffffffffffffffffffffffff16021790555090505060405180604001604052808481526020018373ffffffffffffffffffffffffffffffffffffffff16815250600560008473ffffffffffffffffffffffffffffffffffffffff1673ffffffffffffffffffffffffffffffffffffffff168152602001908152602001600020600082015181600001908051906020019061184c9291906118a1565b5060208201518160010160006101000a81548173ffffffffffffffffffffffffffffffffffffffff021916908373ffffffffffffffffffffffffffffffffffffffff1602179055509050506001905092915050565b828054600181600116156101000203166002900490600052602060002090601f016020900481019282601f106118e257805160ff1916838001178555611910565b82800160010185558215611910579182015b8281111561190f5782518255916020019190600101906118f4565b5b50905061191d9190611921565b5090565b61194391905b8082111561193f576000816000905550600101611927565b5090565b9056fea265627a7a72315820da922f9ee105a2c78e8e9d98c2819851e0aa0f55e79bbe2d1b7b32083872257264736f6c63430005100032",
  "source": "pragma solidity ^0.5.0;\r\n\r\ncontract SmartGrid {\r\n    \r\n    //State Variables\r\n    uint public nodeCount;\r\n    address public VPaddress;\r\n    uint private givePowerAmount;\r\n    uint private requestPowerAmount;\r\n    \r\n    //Structure for storing Node Info\r\n    struct Node {\r\n        string name;\r\n        address nodeAddress;\r\n    }\r\n    \r\n    struct nodeDetails{\r\n        uint count;\r\n        address fromAddress;\r\n        address toAddress;\r\n        uint amount;\r\n    }\r\n    \r\n    //Structure for storing VP Info\r\n    struct VP {\r\n        string name;\r\n        address VPaddress;\r\n    }\r\n    \r\n    //Structure for storing information of the nodes giving power\r\n    struct NodePowerGive {\r\n        address nodeAddress;\r\n        uint powerUnits;\r\n    }\r\n    \r\n    //Structure for storing information of the nodes requesting for power\r\n    struct NodePowerNeed {\r\n        address nodeAddress;\r\n        uint powerUnits;\r\n    }\r\n    \r\n    //Mappings\r\n    mapping(uint => Node) public nodes;\r\n    \r\n    mapping(address => Node) nodeInfo;\r\n    \r\n    mapping(address => NodePowerGive) public giveRequest;\r\n    \r\n    mapping(address => NodePowerNeed) public needRequest;\r\n    \r\n    mapping(address => VP) VPinfo;\r\n    \r\n    mapping(address => mapping(uint => nodeDetails)) nodeDetailsList;\r\n    \r\n    //Modifiers\r\n    modifier onlyVP() {\r\n        require(msg.sender == VPaddress);\r\n        _;\r\n    }\r\n    \r\n    //Constructor to assign the contract initialising address as the VP\r\n    constructor() public {\r\n        VPaddress = msg.sender;\r\n        VPinfo[VPaddress].name = \"Grid_Admin\";\r\n        VPinfo[VPaddress].VPaddress = VPaddress;\r\n    }\r\n    \r\n    //Function to create a node\r\n    function createNode(string memory _name, address _nodeAddress) public onlyVP returns(bool) {\r\n        nodeCount++;\r\n        nodes[nodeCount] = Node(_name, _nodeAddress);\r\n        nodeInfo[_nodeAddress] = Node(_name, _nodeAddress);\r\n        return true;\r\n    }\r\n    \r\n    //Function to get the Node details\r\n    function getNode(address _address) public view returns(string memory _name, address _addressNode) {\r\n        return (_name = nodeInfo[_address].name, _addressNode = nodeInfo[_address].nodeAddress);\r\n    }\r\n    \r\n    //Function to get VP details\r\n    function getVP(address _address) public view returns(string memory _name, address _addressVP) {\r\n        return (_name = VPinfo[_address].name, _addressVP = VPinfo[_address].VPaddress);\r\n    }\r\n    \r\n    //Function to donate power\r\n    function donatePower(address _address, uint _power) public returns(bool) {\r\n        require(msg.sender == _address);\r\n        givePowerAmount = giveRequest[_address].powerUnits;\r\n        if(givePowerAmount != 0) {\r\n            _power = givePowerAmount + _power;\r\n            giveRequest[_address] = NodePowerGive(_address, _power);\r\n        }\r\n        else {\r\n            giveRequest[_address] = NodePowerGive(_address, _power);\r\n        }\r\n        \r\n        return true;\r\n    } \r\n    \r\n    //Function to request for power\r\n    function requirePower(address _address, uint _power) public returns(bool) {\r\n        require(msg.sender == _address);\r\n        requestPowerAmount = needRequest[_address].powerUnits;\r\n        if(requestPowerAmount != 0) {\r\n            _power = _power + requestPowerAmount;\r\n            needRequest[_address] = NodePowerNeed(_address, _power);\r\n        }\r\n        else {\r\n        needRequest[_address] = NodePowerNeed(_address, _power);\r\n        }\r\n        \r\n        return true;\r\n    }\r\n    \r\n    //Function to transfer the power\r\n    function transferPower(address _senderAddress, address _recipientAddress, uint _power) public onlyVP returns(bool) {\r\n        require(_senderAddress != _recipientAddress);\r\n        require(giveRequest[_senderAddress].powerUnits >= _power);\r\n        require(needRequest[_recipientAddress].powerUnits != 0);\r\n        uint temp_count;\r\n        giveRequest[_senderAddress].powerUnits = giveRequest[_senderAddress].powerUnits - _power;\r\n        needRequest[_recipientAddress].powerUnits = needRequest[_recipientAddress].powerUnits - _power;\r\n        temp_count = nodeDetailsList[_senderAddress][0].count;\r\n        temp_count++;\r\n        nodeDetailsList[_senderAddress][temp_count].fromAddress = _senderAddress;\r\n        nodeDetailsList[_senderAddress][temp_count].toAddress = _recipientAddress;\r\n        nodeDetailsList[_senderAddress][temp_count].amount = _power;\r\n        nodeDetailsList[_senderAddress][0].count++;\r\n        \r\n        return true;\r\n    }\r\n    \r\n    //Function to retrieve Node Details\r\n    function getNodeDetailsList(address _fromAddress, uint temp) public view returns(address fromAddress, address toAddress, uint amount,uint count) {\r\n        count = nodeDetailsList[_fromAddress][0].count;\r\n        fromAddress = nodeDetailsList[_fromAddress][temp].fromAddress;\r\n        toAddress = nodeDetailsList[_fromAddress][temp].toAddress;\r\n        amount = nodeDetailsList[_fromAddress][temp].amount;\r\n        \r\n    }\r\n    \r\n}",
  "sourcePath": "D:\\EthGrid\\contracts\\ElectricityGrid.sol",
  "compiler": {
    "name": "solc",
    "version": "0.5.16+commit.9c3226ce.Emscripten.clang"
  },
  "schemaVersion": "3.1.0",
  "updatedAt": "2020-04-26T09:35:52.489Z",
  "networkType": "ethereum",
  "devdoc": {
    "methods": {}
  },
  "userdoc": {
    "methods": {}
  }
}